:100000000C942A000C9447000C9447000C94470071
:100010000C9447000C9447000C9447000C94470044
:100020000C9447000C9447000C9447000C94470034
:100030000C9447000C9447000C9447000C94470024
:100040000C9447000C9447000C9447000C94470014
:100050000C94470011241FBECFE5D8E0DEBFCDBF12
:1000600010E0A0E6B0E0E6E1F1E002C005900D92FC
:10007000A636B107D9F710E0A6E6B0E001C01D92A0
:10008000A636B107E1F70E9449000C9489000C9450
:100090000000E0916200F091630080818E7F808398
:1000A000E0916200F0916300808180618083E09143
:1000B0006400F091650080818F7E808390E031E064
:1000C00020E001C0922FE0916000F09161008081FA
:1000D00080FF1BC09923C9F4E0916400F091650092
:1000E0008081806180838FE39DE0A3E08150904018
:1000F000A040E1F700C00000E0916400F0916500CD
:1001000080818F7E8083932FDECF808180FFDACF46
:06011000DACFF894FFCFE6
:0601160030003100320050
:00000001FF
