:020000040800F2
:100000000050002079200008C9200008C9200008FD
:10001000C9200008C9200008C9200008000000000D
:10002000000000000000000000000000C9200008DF
:10003000C920000800000000C9200008C9200008ED
:10004000C9200008C9200008C9200008C9200008EC
:10005000C9200008C9200008D9020008F9020008D8
:10006000190300083903000859030008C9200008D3
:10007000C9200008C9200008C9200008C9200008BC
:10008000C9200008C9200008C9200008C9200008AC
:10009000C9200008C9200008C92000087903000809
:1000A000C9200008C9200008C9200008C92000088C
:1000B000C9200008C9200008C9200008D11E000876
:1000C000C9200008DD1E0008C92000086D1F0008B7
:1000D000811F0008951F0008A91F0008BD1F000808
:1000E00029040008C920000800000000C9200008F9
:1000F000C9200008C9200008C9200008C92000083C
:10010000C9200008C9200008C9200008C92000082B
:10011000C9200008C9200008C9200008C92000081B
:10012000C9200008C9200008C9200008C92000080B
:1001300010B5054C237833B9044B13B10448AFF321
:1001400000800123237010BD180000200000000073
:100150001421000808B5034B1BB103490348AFF352
:10016000008008BD000000001C00002014210008D1
:1001700080B586B000AF0123FB740D4B7B6001237B
:10018000BB7400237B7200237B6100233B7200233E
:10019000BB7200233B820023BB810023FB813B1DFC
:1001A0001946044801F0B8FB00BF1837BD4680BDB2
:1001B000A08601000054004080B5C8B002AF07F52A
:1001C0008C73A3F58873196007F58C73A3F58A7394
:1001D0001A6007F58C73A3F5857302461A8007F53C
:1001E0008C73A3F585731B881B0A9BB2DAB207F5E3
:1001F0008C73A3F582731A7007F58C73A3F585735E
:100200001B88DAB207F58C73A3F582735A70022348
:10021000A7F8163115E0B7F81631023B07F58C72D6
:10022000A2F5887212681A44B7F81631117807F5EA
:100230008C72A2F58272D154B7F816310133A7F847
:100240001631B7F8162107F58C73A3F58A731B686E
:1002500002339A42DFD307F58C73A3F58A731B68C8
:10026000023307F1140200210191002100912A219B
:10027000034801F091FC00BF07F58C77BD4680BDB7
:100280000054004080B588B002AF0346B9607A6080
:10029000FB81FB891B0A9BB2DBB23B75FB89DBB29E
:1002A0007B7507F1140200230193012300930223BD
:1002B0002A21084801F070FC0123019300230093D8
:1002C0007B68BA682A21034801F0B8FC00BF1837E0
:1002D000BD4680BD0054004080B500AF044A53695C
:1002E00043F001035361034B1B68984700BF80BD77
:1002F000000401403400002080B500AF044A536977
:1003000043F002035361034B5B68984700BF80BD15
:10031000000401403400002080B500AF044A536956
:1003200043F004035361034B9B68984700BF80BDB3
:10033000000401403400002080B500AF044A536936
:1003400043F008035361034BDB68984700BF80BD4F
:10035000000401403400002080B500AF044A536916
:1003600043F010035361034B1B69984700BF80BDE6
:10037000000401403400002080B500AF284B5B69C9
:10038000C3F34013DBB2002B08D0254A536943F076
:1003900020035361234B5B6998473EE0204B5B6928
:1003A000C3F38013DBB2002B08D01D4A536943F01E
:1003B000400353611B4B9B6998472EE0184B5B69C8
:1003C000C3F3C013DBB2002B08D0154A536943F0C6
:1003D00080035361134BDB6998471EE0104B5B6948
:1003E000C3F30023DBB2002B08D00D4A536943F45A
:1003F000807353610B4B1B6A98470EE0084B5B6997
:10040000C3F34023DBB2002B07D0064B5B6A98474F
:10041000034A536943F40073536100BF80BD00BFBA
:10042000000401403400002080B500AF304B5B6910
:10043000C3F38023DBB2002B08D02D4A536943F469
:10044000806353612B4B9B6A98474EE0284B5B6956
:10045000C3F3C023DBB2002B08D0254A536943F411
:1004600000635361234BDB6A98473EE0204B5B6996
:10047000C3F30033DBB2002B08D01D4A536943F4A9
:10048000805353611B4B1B6B98472EE0184B5B69E5
:10049000C3F34033DBB2002B08D0154A536943F451
:1004A00000535361134B5B6B98471EE0104B5B6925
:1004B000C3F38033DBB2002B08D00D4A536943F4F9
:1004C000804353610B4B9B6B98470EE0084B5B6975
:1004D000C3F3C033DBB2002B07D0054A536943F4A2
:1004E00000435361034BDB6B984700BF80BD00BFE7
:1004F000000401403400002080B483B000AF786075
:1005000039603B681B78102B01F2018201A252F87E
:1005100023F000BF59050008730600088F07000884
:10052000AB080008C7090008E30A0008FF0B000831
:100530001B0D0008370E0008530F00086F1000084D
:1005400089110008A1120008B9130008D11400088D
:10055000E9150008011700083B689B78012B06D1BC
:100560007A681368012161F30103136013E03B68AB
:100570009B78022B06D17A681368022161F301038C
:10058000136008E03B689B78032B04D17A681368FA
:1005900043F0030313603B685B78002B0BD03B6890
:1005A0005B78012B07D03B685B78022B03D03B685C
:1005B0005B78032B04D17A6813686FF3010313602F
:1005C0003B685B78072B01F2818101A252F823F08E
:1005D000F1050008FD0500080B06000823060008C9
:1005E0003B06000847060008550600086306000899
:1005F0007A6813686FF38303136038E07A681368CE
:10060000012161F38303136031E07A6813680221EA
:1006100061F3830313607A68136943F00103136184
:1006200025E07A681368022161F3830313607A6816
:10063000536943F00103536119E07A6813686FF35B
:100640008303136013E07A681368012161F3830365
:1006500013600CE07A681368022161F3830313606E
:1006600005E07A68136843F00C03136000BF01F0E3
:100670002DB93B689B78012B06D17A68136801215C
:1006800061F30513136013E03B689B78022B06D1DE
:100690007A681368022161F30513136008E03B6870
:1006A0009B78032B04D17A68136843F030031360FE
:1006B0003B685B78002B0BD03B685B78012B07D045
:1006C0003B685B78022B03D03B685B78032B04D13B
:1006D0007A6813686FF3051313603B685B78072B28
:1006E00001F2F68001A252F823F000BF0D070008C6
:1006F00019070008270700083F07000857070008E8
:1007000063070008710700087F0700087A6813680C
:100710006FF38713136038E07A681368012161F37F
:100720008713136031E07A681368022161F387133D
:1007300013607A68136943F00203136125E07A6855
:100740001368022161F3871313607A68536943F0D9
:100750000203536119E07A6813686FF3871313601B
:1007600013E07A681368012161F3871313600CE0CA
:100770007A681368022161F38713136005E07A68D1
:10078000136843F0C003136000BF01F0A1B83B68D9
:100790009B78012B06D17A681368012161F3092344
:1007A000136013E03B689B78022B06D17A681368CC
:1007B000022161F30923136008E03B689B78032B57
:1007C00004D17A68136843F4407313603B685B7824
:1007D000002B0BD03B685B78012B07D03B685B7824
:1007E000022B03D03B685B78032B04D17A68136833
:1007F0006FF3092313603B685B78072B01F26A8073
:1008000001A252F823F000BF2908000835080008AB
:10081000430800085B080008730800087F08000808
:100820008D0800089B0800087A6813686FF38B2313
:10083000136038E07A681368012161F38B23136039
:1008400031E07A681368022161F38B2313607A68C0
:10085000136943F00403136125E07A6813680221E9
:1008600061F38B2313607A68536943F00403536187
:1008700019E07A6813686FF38B23136013E07A68CA
:100880001368012161F38B2313600CE07A6813680D
:10089000022161F38B23136005E07A68136843F447
:1008A0004063136000BF01F015B83B689B78012BD3
:1008B00006D17A681368012161F30D33136013E0E8
:1008C0003B689B78022B06D17A681368022161F39A
:1008D0000D33136008E03B689B78032B04D17A68E2
:1008E000136843F4405313603B685B78002B0BD0D4
:1008F0003B685B78012B07D03B685B78022B03D009
:100900003B685B78032B04D17A6813686FF30D336F
:1009100013603B685B78072B00F2DE8701A252F878
:1009200023F000BF45090008510900085F090008CD
:10093000770900088F0900089B090008A909000829
:10094000B70900087A6813686FF38F33136038E0D3
:100950007A681368012161F38F33136031E07A689C
:100960001368022161F38F3313607A68136943F0CF
:100970000803136125E07A681368022161F38F335D
:1009800013607A68536943F00803536119E07A6889
:1009900013686FF38F33136013E07A6813680121D3
:1009A00061F38F3313600CE07A681368022161F3FE
:1009B0008F33136005E07A68136843F44043136093
:1009C00000BF00F089BF3B689B78012B06D17A6895
:1009D0001368012161F31143136013E03B689B78B6
:1009E000022B06D17A681368022161F31143136068
:1009F00008E03B689B78032B04D17A68136843F4C2
:100A0000403313603B685B78002B0BD03B685B780E
:100A1000012B07D03B685B78022B03D03B685B78E7
:100A2000032B04D17A6813686FF3114313603B689A
:100A30005B78072B00F2528701A252F823F000BF27
:100A4000610A00086D0A00087B0A0008930A000882
:100A5000AB0A0008B70A0008C50A0008D30A000854
:100A60007A6813686FF39343136038E07A68136809
:100A7000012161F39343136031E07A681368022126
:100A800061F3934313607A68136943F010031361B1
:100A900025E07A681368022161F3934313607A6852
:100AA000536943F01003536119E07A6813686FF3D8
:100AB0009343136013E07A681368012161F3934351
:100AC00013600CE07A681368022161F393431360AA
:100AD00005E07A68136843F44023136000BF00F018
:100AE000FDBE3B689B78012B06D17A681368012113
:100AF00061F31553136013E03B689B78022B06D11A
:100B00007A681368022161F31553136008E03B68AB
:100B10009B78032B04D17A68136843F44013136065
:100B20003B685B78002B0BD03B685B78012B07D0D0
:100B30003B685B78022B03D03B685B78032B04D1C6
:100B40007A6813686FF3155313603B685B78072B63
:100B500000F2C68601A252F823F000BF7D0B000808
:100B6000890B0008970B0008AF0B0008C70B0008A3
:100B7000D30B0008E10B0008EF0B00087A6813683C
:100B80006FF39753136038E07A681368012161F3BB
:100B90009753136031E07A681368022161F3975329
:100BA00013607A68136943F02003136125E07A68C3
:100BB0001368022161F3975313607A68536943F015
:100BC0002003536119E07A6813686FF39753136039
:100BD00013E07A681368012161F3975313600CE006
:100BE0007A681368022161F39753136005E07A680D
:100BF000136843F44003136000BF00F071BE3B680C
:100C00009B78012B06D17A681368012161F319637F
:100C1000136013E03B689B78022B06D17A68136857
:100C2000022161F31963136008E03B689B78032B92
:100C300004D17A68136843F0407313603B685B78B3
:100C4000002B0BD03B685B78012B07D03B685B78AF
:100C5000022B03D03B685B78032B04D17A681368BE
:100C60006FF3196313603B685B78072B00F23A86D9
:100C700001A252F823F000BF990C0008A50C00084F
:100C8000B30C0008CB0C0008E30C0008EF0C0008C4
:100C9000FD0C00080B0D00087A6813686FF39B6366
:100CA000136038E07A681368012161F39B63136075
:100CB00031E07A681368022161F39B6313607A68FC
:100CC000136943F04003136125E07A681368022139
:100CD00061F39B6313607A68536943F04003536187
:100CE00019E07A6813686FF39B63136013E07A6806
:100CF0001368012161F39B6313600CE07A68136849
:100D0000022161F39B63136005E07A68136843F086
:100D10004063136000BF00F0E5BD3B689B78012B8A
:100D200006D17A681368012161F31D73136013E023
:100D30003B689B78022B06D17A681368022161F325
:100D40001D73136008E03B689B78032B04D17A681D
:100D5000136843F0405313603B685B78002B0BD063
:100D60003B685B78012B07D03B685B78022B03D094
:100D70003B685B78032B04D17A6813686FF31D73AB
:100D800013603B685B78072B00F2AE8501A252F836
:100D900023F000BFB50D0008C10D0008CF0D0008FD
:100DA000E70D0008FF0D00080B0E0008190E0008E3
:100DB000270E00087A6813686FF39F73136038E09A
:100DC0007A681368012161F39F73136031E07A68D8
:100DD0001368022161F39F7313607A68136943F00B
:100DE0008003136125E07A681368022161F39F7321
:100DF00013607A68536943F08003536119E07A689D
:100E000013686FF39F73136013E07A68136801210E
:100E100061F39F7313600CE07A681368022161F339
:100E20009F73136005E07A68136843F040431360D2
:100E300000BF00F059BD3B689B78012B06D17A6852
:100E40005368012161F30103536013E03B689B7811
:100E5000022B06D17A685368022161F301035360C3
:100E600008E03B689B78032B04D17A68536843F011
:100E7000030353603B685B78002B0BD03B685B78C7
:100E8000012B07D03B685B78022B03D03B685B7873
:100E9000032B04D17A6853686FF3010353603B68F6
:100EA0005B78072B00F2228501A252F823F000BFE5
:100EB000D10E0008DD0E0008EB0E0008030F00083D
:100EC0001B0F0008270F0008350F0008430F00080C
:100ED0007A6853686FF38303536038E07A68536825
:100EE000012161F38303536031E07A685368022182
:100EF00061F3830353607A68136943F48073136169
:100F000025E07A685368022161F3830353607A68AD
:100F1000536943F48073536119E07A6853686FF33F
:100F20008303536013E07A685368012161F38303FC
:100F300053600CE07A685368022161F383035360C5
:100F400005E07A68536843F00C03536000BF00F07B
:100F5000CDBC3B689B78012B06D17A685368012190
:100F600061F30513536013E03B689B78022B06D1B5
:100F70007A685368022161F30513536008E03B6807
:100F80009B78032B04D17A68536843F03003536095
:100F90003B685B78002B0BD03B685B78012B07D05C
:100FA0003B685B78022B03D03B685B78032B04D152
:100FB0007A6853686FF3051353603B685B78072BBF
:100FC00000F2968401A252F823F000BFED0F000852
:100FD000F90F0008071000081F100008371000085C
:100FE00043100008511000085F1000087A68536829
:100FF0006FF38713536038E07A685368012161F317
:101000008713536031E07A685368022161F38713D4
:1010100053607A68136943F40073136125E07A68BA
:101020005368022161F3871353607A68536943F46C
:101030000073536119E07A6853686FF38713536044
:1010400013E07A685368012161F3871353600CE061
:101050007A685368022161F38713536005E07A6868
:10106000536843F0C003536000BF00F041BC3B68CD
:101070009B78012B06D17A685368012161F309231B
:10108000536013E03B689B78022B06D17A68536863
:10109000022161F30923536008E03B689B78032B2E
:1010A00004D17A68536843F4407353603B685B78BB
:1010B000002B0BD03B685B78012B07D03B685B783B
:1010C000022B03D03B685B78032B04D17A6853680A
:1010D0006FF3092353603B685B78072B00F20A84A7
:1010E00001A252F823F000BF0911000815110008F1
:1010F000231100083B110008531100085F1100087C
:101100006D1100087B1100087A6853686FF38B2318
:10111000536038E07A685368012161F38B23536090
:1011200031E07A685368022161F38B2353607A6857
:10113000136943F48063136125E07A6853680221E0
:1011400061F38B2353607A68536943F4806353617E
:1011500019E07A6853686FF38B23536013E07A6861
:101160005368012161F38B2353600CE07A68536864
:10117000022161F38B23536005E07A68536843F4DE
:101180004063536000BFB5E33B689B78012B06D1F9
:101190007A685368012161F30D33536013E03B68B3
:1011A0009B78022B06D17A685368022161F30D33D4
:1011B000536008E03B689B78032B04D17A6853683E
:1011C00043F4405353603B685B78002B0BD03B6883
:1011D0005B78012B07D03B685B78022B03D03B6820
:1011E0005B78032B04D17A6853686FF30D33536037
:1011F0003B685B78072B00F27F8301A252F823F053
:10120000211200082D1200083B120008531200089A
:101210006B1200087712000885120008931200086C
:101220007A6853686FF38F33536038E07A68536895
:10123000012161F38F33536031E07A6853680221F2
:1012400061F38F3353607A68136943F40063136169
:1012500025E07A685368022161F38F3353607A681E
:10126000536943F40063536119E07A6853686FF37C
:101270008F33536013E07A685368012161F38F3331
:1012800053600CE07A685368022161F38F33536036
:1012900005E07A68536843F44043536000BF2BE392
:1012A0003B689B78012B06D17A685368012161F372
:1012B0001143536013E03B689B78022B06D17A6898
:1012C0005368022161F31143536008E03B689B7847
:1012D000032B04D17A68536843F4403353603B686E
:1012E0005B78002B0BD03B685B78012B07D03B6809
:1012F0005B78022B03D03B685B78032B04D17A68C0
:1013000053686FF3114353603B685B78072B00F21F
:10131000F58201A252F823F03913000845130008A2
:10132000531300086B130008831300088F13000881
:101330009D130008AB1300087A6853686FF393435A
:10134000536038E07A685368012161F39343536036
:1013500031E07A685368022161F3934353607A68FD
:10136000136943F48053136125E07A6853680221BE
:1013700061F3934353607A68536943F48053536134
:1013800019E07A6853686FF39343536013E07A6807
:101390005368012161F3934353600CE07A6853680A
:1013A000022161F39343536005E07A68536843F484
:1013B0004023536000BFA1E23B689B78012B06D11C
:1013C0007A685368012161F31553536013E03B6859
:1013D0009B78022B06D17A685368022161F315537A
:1013E000536008E03B689B78032B04D17A6853680C
:1013F00043F4401353603B685B78002B0BD03B6891
:101400005B78012B07D03B685B78022B03D03B68ED
:101410005B78032B04D17A6853686FF315535360DC
:101420003B685B78072B00F26B8201A252F823F035
:10143000511400085D1400086B14000883140008A0
:101440009B140008A7140008B5140008C314000872
:101450007A6853686FF39753536038E07A6853683B
:10146000012161F39753536031E07A685368022198
:1014700061F3975353607A68136943F4005313611F
:1014800025E07A685368022161F3975353607A68C4
:10149000536943F40053536119E07A6853686FF35A
:1014A0009753536013E07A685368012161F39753AF
:1014B00053600CE07A685368022161F397535360DC
:1014C00005E07A68536843F44003536000BF17E2B5
:1014D0003B689B78012B06D17A685368012161F340
:1014E0001963536013E03B689B78022B06D17A683E
:1014F0005368022161F31963536008E03B689B78ED
:10150000032B04D17A68536843F0407353603B68FF
:101510005B78002B0BD03B685B78012B07D03B68D6
:101520005B78022B03D03B685B78032B04D17A688D
:1015300053686FF3196353603B685B78072B00F2C5
:10154000E18101A252F823F0691500087515000821
:10155000831500089B150008B3150008BF15000887
:10156000CD150008DB1500087A6853686FF39B639C
:10157000536038E07A685368012161F39B635360DC
:1015800031E07A685368022161F39B6353607A68A3
:10159000136943F48043136125E07A68536802219C
:1015A00061F39B6353607A68536943F480435361EA
:1015B00019E07A6853686FF39B63536013E07A68AD
:1015C0005368012161F39B6353600CE07A685368B0
:1015D000022161F39B63536005E07A68536843F02E
:1015E0004063536000BF8DE13B689B78012B06D1BF
:1015F0007A685368012161F31D73536013E03B68FF
:101600009B78022B06D17A685368022161F31D731F
:10161000536008E03B689B78032B04D17A685368D9
:1016200043F0405353603B685B78002B0BD03B6822
:101630005B78012B07D03B685B78022B03D03B68BB
:101640005B78032B04D17A6853686FF31D73536082
:101650003B685B78072B00F2578101A252F823F018
:10166000811600088D1600089B160008B3160008A6
:10167000CB160008D7160008E5160008F316000878
:101680007A6853686FF39F73536038E07A685368E1
:10169000012161F39F73536031E07A68536802213E
:1016A00061F39F7353607A68136943F400431361D5
:1016B00025E07A685368022161F39F7353607A686A
:1016C000536943F40043536119E07A6853686FF338
:1016D0009F73536013E07A685368012161F39F732D
:1016E00053600CE07A685368022161F39F73536082
:1016F00005E07A68536843F04043536000BF03E15C
:101700003B685B78072B00F2018101A252F823F0BD
:10171000311700083F170008511700086B17000821
:1017200085170008D3170008211800086F18000853
:101730007B6800221A607B6800225A60C5E07B68E3
:101740004FF044321A607B684FF044325A60BCE07C
:101750007B684FF088321A607B684FF088325A609D
:101760007B684FF6FF721A61AFE07B684FF08832FA
:101770001A607B684FF088325A607B684FF6FF72C0
:101780005A61A2E03B689B78012B08D17B684FF03F
:1017900011321A607B684FF011325A608EE03B685C
:1017A0009B78022B08D17B684FF022325A607B680D
:1017B0004FF022321A6081E03B689B78032B7DD189
:1017C0007B684FF033325A607B684FF033321A60D7
:1017D00074E03B689B78012B08D17B684FF0553251
:1017E0001A607B684FF055325A6069E03B689B781D
:1017F000022B08D17B684FF066325A607B684FF04D
:1018000066321A605CE03B689B78032B58D17B689A
:101810004FF077325A607B684FF077321A604FE0B2
:101820003B689B78012B08D17B684FF099321A6096
:101830007B684FF099325A6044E03B689B78022BFA
:1018400008D17B684FF0AA325A607B684FF0AA3209
:101850001A6037E03B689B78032B33D17B684FF0ED
:10186000BB325A607B684FF0BB321A602AE03B689B
:101870009B78012B08D17B684FF0DD321A607B68C2
:101880004FF0DD325A601FE03B689B78022B08D195
:101890007B684FF0EE325A607B684FF0EE321A6090
:1018A00012E03B689B78032B0ED17B684FF0FF3230
:1018B0005A607B684FF0FF321A6005E000BF25E0F8
:1018C00000BF23E000BF21E000BF1FE000BF1EE01B
:1018D00000BF1CE000BF1AE000BF18E000BF16E028
:1018E00000BF14E000BF12E000BF10E000BF0EE038
:1018F00000BF0CE000BF0AE000BF08E000BF06E048
:1019000000BF04E000BF02E000BF00E000BF00BF76
:101910000C37BD4680BC704780B584B000AF78609E
:1019200039607B68954A93423AD106233B7207237C
:101930007B720123BB7207F1080319469048FEF73A
:10194000DBFD07233B7207237B720123BB7207F188
:10195000080319468A48FEF7CFFD8A4AD36943F443
:101960000013D3613B681B69002B57D07A6853681A
:1019700043F4806353607A68536843F400735360A0
:101980007A68536843F4807353607F4A136843F066
:10199000004313607C4A536843F0010353603DE009
:1019A0007B687A4A934239D10A233B7207237B72C0
:1019B0000123BB7207F1080319467148FEF79CFD2D
:1019C0000B233B7207237B720123BB7207F10803D1
:1019D00019466B48FEF790FD6A4AD36943F48003C9
:1019E000D3613B681B69002B18D07A68536843F4B5
:1019F000806353607A68536843F4007353607A6875
:101A0000536843F4807353605F4A536843F00203A2
:101A100053605D4A536843F0040353607A68136867
:101A20006FF3000313607B6800225A617B68002219
:101A30009A6100F085FAF8603B685B79002B40F012
:101A40009380FB68524AA2FB03239B0C03F03F03E5
:101A5000D9B27A68536861F3050353603B681B6829
:101A60004CF25032934204D03B681B68494A93427F
:101A70001CD13B681B685B00FA68B2FBF3F3C3F34D
:101A80000B0399B27A68D36961F30B03D3617B6866
:101A90005B68C3F30503DBB20133DBB203F03F0342
:101AA000D9B27A68136A61F3050313623B68DB7B82
:101AB00003F00103D9B27A68136861F38A231360D3
:101AC0003B689B7B03F00103D9B27A68136861F32A
:101AD000861313603B681B7903F00103D9B27A685F
:101AE000136861F3C71313603B685B7903F001036C
:101AF000D9B27A68136861F3410313603B689B793C
:101B0000002B1DD03B689B7903F00103D9B27A68A2
:101B1000D36861F30003D3603B681B8903F07F0344
:101B2000D9B27A68936861F3470393603B685B8935
:101B300003F07F03D9B27A68D36861F34703D360B7
:101B40003B689B8903F00103D9B27A68936861F31B
:101B5000CF3393603B681B8903F07F03D9B27A6867
:101B6000936861F3470393607A68136843F0010355
:101B7000136000BF1037BD4680BD00BF0054004059
:101B8000000C01400010024000E100E0005800405D
:101B900083DE1B43A086010080B586B000AFF860ED
:101BA0007A603B600B467B8100220021F86800F0E0
:101BB000AFF800BF0121F86800F002F90346002BDE
:101BC000F8D07B8900221946F86800F0C6F800BFFB
:101BD0000221F86800F0F4F80346002BF8D000BFAB
:101BE0000621F86800F0ECF80346002BF8D000233B
:101BF0007B6113E07A687B6913441978FA6813698A
:101C000061F30703136100BF0421F86800F0D8F8FE
:101C10000346002BF8D07B6901337B617A693B680E
:101C20009A42E7D397F82030002B03D10021F868BF
:101C300000F0ADF800BF1837BD4680BD80B586B056
:101C400000AFF8607A603B600B467B810123FB7438
:101C5000FB681B68C3F38023DBB2002B06D1FA6854
:101C6000136843F4806313600023FB7497F82430F7
:101C70001A460021F86800F04BF800BF0121F8680F
:101C800000F09EF80346002BF8D07B89012219460C
:101C9000F86800F062F800BF0221F86800F090F8E0
:101CA0000346002BF8D03B68002B1DD03B687B61BE
:101CB00012E000BF0321F86800F082F80346002B11
:101CC000F8D0FB681B69DAB27B681A707B68013355
:101CD0007B607B69013B7B617B69012BE9D8FA68FA
:101CE000136843F48063136097F82030002B03D10E
:101CF0000021F86800F04BF8FB7C002B04D0FA6858
:101D0000136843F48063136000BF1837BD4680BD7D
:101D100080B582B000AF78600B46FB701346BB7095
:101D2000BB78012B07D000BF0021786800F048F88D
:101D30000346002BF8D1FB78012B05D07A68136895
:101D400043F48073136004E07A6813686FF3082328
:101D5000136000BF0837BD4680BD80B483B000AFBC
:101D600078600B467B8013467B707B885B007B80B2
:101D70007B78012B03D17B8843F001037B807A8839
:101D80007B681A6100BF0C37BD4680BC704780B4C9
:101D900083B000AF78600B46FB70FB78012B05D059
:101DA0007A68136843F40073136004E07A68136878
:101DB0006FF34923136000BF0C37BD4680BC7047EA
:101DC00080B485B000AF78600B46FB700023FB73D6
:101DD000FB78062B76D801A252F823F0F91D0008F3
:101DE000131E00082D1E00084D1E0008671E000867
:101DF000671E0008811E00087B689B69C3F34003CF
:101E0000DBB2002B02D00123FB735BE00023FB73EA
:101E100058E07B685B69C3F30003DBB2002B02D0A0
:101E20000123FB734EE00023FB734BE07B685B698F
:101E3000C3F34003DBB2002B02D00123FB7301E0AC
:101E40000023FB737B689B69BB603BE07B685B693D
:101E5000C3F38013DBB2002B02D00123FB7331E00C
:101E60000023FB732EE07B685B69C3F3C013DBB216
:101E7000002B02D00123FB7324E00023FB7321E03D
:101E80007B685B69C3F3C013DBB2002B17D07B68A0
:101E90009B69C3F34003DBB2002B10D07B689B69C6
:101EA000C3F30003DBB2002B09D07B689B69C3F34B
:101EB0008003DBB2002B02D00123FB7301E000237F
:101EC000FB7300BFFB7B18461437BD4680BC7047D0
:101ED00080B400AF00BFBD4680BC704780B400AF87
:101EE00000BFBD4680BC704780B400AF064B5B6846
:101EF000C3F38103DBB2012B01D1044B00E0044B9F
:101F00001846BD4680BC7047001002400024F40013
:101F100000127A0080B500AFFFF7E6FF0246064BDD
:101F20005B68C3F30313DBB21946044B5B5C22FA14
:101F300003F3184680BD00BF0010024000000020DF
:101F400080B500AFFFF7E6FF0246064B5B68C3F3C0
:101F50000223DBB21946044B5B5C22FA03F31846FA
:101F600080BD00BF001002400800002080B500AF17
:101F7000024B1B68984700BF80BD00BF7400002063
:101F800080B500AF024B1B68984700BF80BD00BF03
:101F90007400002080B500AF024B1B68984700BF5B
:101FA00080BD00BF7800002080B500AF024B1B68E9
:101FB000984700BF80BD00BF7800002080B500AF0B
:101FC000024B1B68984700BF80BD00BF780000200F
:101FD00080B400AF064A936943F004039361044A56
:101FE000936943F00803936100BFBD4680BC70470E
:101FF0000010024080B584B000AF1E4A07F108030C
:1020000092E8030018600433198002330A0C1A7036
:1020100000233B603B1D00210A461A800A469A7045
:10202000FFF7D6FFFEF7A4F807F1080307221946C9
:10203000AF20FEF7C1F83B4607221946AF20FEF756
:1020400021F90A233B720B237B720C23BB720D23F5
:10205000FB7207F108030422194640F6FF70FEF7F1
:10206000ABF83B460422194640F6FF70FEF70AF92A
:10207000FEE700BF2C2100080D488546AFF3008025
:102080000C480D490D4A002302E0D458C4500433D3
:10209000C4188C42F9D30A4A0A4C002301E01360A9
:1020A0000432A242FBD300F011F8FFF7A3FFFEE7D2
:1020B0000050002000000020180000203C210008F3
:1020C000180000207C000020FEE7000070B500260C
:1020D0000C4D0D4C641BA410A64209D100F01AF857
:1020E00000260A4D0A4C641BA410A64205D170BDFF
:1020F00055F8043B98470136EEE755F8043B9847FE
:102100000136F2E7342100083421000834210008A8
:1021100038210008F8B500BFF8BC08BC9E467047DF
:0C212000F8B500BFF8BC08BC9E46704734
:08212C0001020304050607008F
:042134005501000849
:042138003101000869
:10213C000000000001020304000000000000000089
:08214C00010203040607080963
:040000050800207956
:00000001FF
