:100000003AC0000048C0000046C0000044C00000E4
:1000100042C0000040C000003EC000003CC00000E4
:100020003AC0000038C00000AEC20000D4C20000D8
:1000300032C0000030C000002EC000002CC0000004
:100040002AC0000028C0000026C0000024C0000014
:1000500022C000005B008C00BD00EE001F015001BB
:100060008101B201E3010C021802240230023C02B9
:1000700048025402600211241FBECFE5D8E0DEBF63
:10008000CDBF20E0A0E6B0E001C01D92A236B207CD
:10009000E1F7C9D2F9C2B4CFCF93DF93DC01EB0112
:1000A000E8814E2F50E04930510508F0A6C1FA0111
:1000B000E65DFF4FE3C28981813091F018F0823014
:1000C000E9F09BC111968C9111978E7F11968C93BC
:1000D000119712968C9112978E7F12968C938DC1E8
:1000E00011968C9111978E7F11968C931197129681
:1000F0008C911297816012968C937FC111968C918E
:100100001197816011968C93119712968C9112978A
:100110008E7F12968C9371C18981813091F018F095
:100120008230E9F06AC111968C9111978D7F1196FA
:100130008C93119712968C9112978D7F12968C93B7
:100140005CC111968C9111978D7F11968C931197AC
:1001500012968C911297826012968C934EC11196D2
:100160008C911197826011968C93119712968C91B5
:1001700012978D7F12968C9340C18981813091F0C6
:1001800018F08230E9F039C111968C9111978B7F6C
:1001900011968C93119712968C9112978B7F1296D1
:1001A0008C932BC111968C9111978B7F11968C9308
:1001B000119712968C911297846012968C931DC1A0
:1001C00011968C911197846011968C9311971296C9
:1001D0008C9112978B7F12968C930FC189818130FD
:1001E00091F018F08230E9F008C111968C911197C6
:1001F000877F11968C93119712968C911297877F17
:1002000012968C93FAC011968C911197877F119654
:100210008C93119712968C911297886012968C93FA
:10022000ECC011968C911197886011968C93119760
:1002300012968C911297877F12968C93DEC08981DB
:10024000813091F018F08230E9F0D7C011968C918E
:1002500011978F7E11968C93119712968C9112970D
:100260008F7E12968C93C9C011968C9111978F7EB8
:1002700011968C93119712968C9112978061129619
:100280008C93BBC011968C911197806111968C93C1
:10029000119712968C9112978F7E12968C93ADC007
:1002A0008981813091F018F08230E9F0A6C0119672
:1002B0008C9111978F7D11968C93119712968C913A
:1002C00012978F7D12968C9398C011968C911197EE
:1002D0008F7D11968C93119712968C911297806254
:1002E00012968C938AC011968C9111978062119608
:1002F0008C93119712968C9112978F7D12968C93F6
:100300007CC08981813091F018F08230E9F075C0AD
:1003100011968C9111978F7B11968C931197129651
:100320008C9112978F7B12968C9367C011968C914B
:1003300011978F7B11968C93119712968C9112972F
:10034000806412968C9359C011968C911197806499
:1003500011968C93119712968C9112978F7B12960F
:100360008C934BC08981813091F018F08230E9F094
:1003700044C011968C9111978F7711968C93119799
:1003800012968C9112978F7712968C9336C0119695
:100390008C9111978F7711968C93119712968C915F
:1003A0001297806812968C9328C011968C911197A1
:1003B000806811968C93119712968C9112978F7773
:1003C00012968C931AC08981813051F018F08230D6
:1003D00071F013C011961C92119712961C920DC0C9
:1003E00011961C9211978FEF12968C9306C08FEF87
:1003F00011968C93119712961C92DF91CF910895CC
:100400000F931F93062F10E00830110508F063C00A
:10041000F801ED5CFF4F32C1442329F0FC01228139
:100420002160228358C0FC0122812E7F228353C089
:10043000442329F0FC012281226022834CC0FC016C
:1004400022812D7F228347C0442329F0FC01228191
:100450002460228340C0FC0122812B7F22833BC089
:10046000442329F0FC0122812860228334C0FC014E
:100470002281277F22832FC0442329F0FC0122817F
:100480002061228328C0FC0122812F7E228323C089
:10049000442329F0FC012281206222831CC0FC013C
:1004A00022812F7D228317C0442329F0FC01228161
:1004B0002064228310C0FC0122812F7B22830BC089
:1004C000442329F0FC0122812068228304C0FC011E
:1004D00022812F7722831F910F910895FC01DB0168
:1004E0008C918130A1F028F0823051F08330B1F04E
:1004F0001BC081818F7B81838181877F818314C031
:1005000081818F7B81838181886081830DC081811E
:10051000806481838181877F818306C0818180643B
:10052000818381818860818311968C91119783707A
:10053000982F9295907F81818F7C892B8183129651
:100540008C911297982F97708181887F892B818356
:1005500013968C911397982F937087818C7F892B9A
:10056000878314968D919C91159790936100809349
:1005700060008FB780688FBF0895FC0191819770EC
:1005800009F0628708951F920F920FB60F921124FF
:100590002F933F934F935F936F937F938F939F938B
:1005A000AF93BF93EF93FF93E0916000F0916100F0
:1005B00081E00995FF91EF91BF91AF919F918F914C
:1005C0007F916F915F914F913F912F910F900FBE4F
:1005D0000F901F9018951F920F920FB60F92112433
:1005E0002F933F934F935F936F937F938F939F933B
:1005F000AF93BF93EF93FF93E0916000F0916100A0
:1006000080E00995FF91EF91BF91AF919F918F91FC
:100610007F916F915F914F913F912F910F900FBEFE
:100620000F901F901895CF93DF93CDB7DEB7289723
:100630000FB6F894DEBF0FBECDBF12E0188783E07F
:100640008F83BE01695F7F4F86E390E025DD40E048
:1006500064E080E390E0D4DE81E089831A831B8329
:100660001C821E821D82BE016F5F7F4F82E590E07B
:1006700035DF60E282E590E080DFFFCFEE0FFF1F05
:0C0680000590F491E02D0994F894FFCF50
:00000001FF
