S00B00004144432E7372656351
S11300000C9443000C9460000C9460000C94600009
S11300100C9460000C9460000C9460000C946000DC
S11300200C9460000C9460000C9460000C946000CC
S11300300C9460000C9460000C9460000C946000BC
S11300400C9460000C9460000C9460000C946000AC
S11300500C946000AD00DE000F0140017101A201AB
S1130060D301040235025C02600265026B02710274
S113007076027C0282029A02A602B202BE02CA027E
S1130080D602E202EE0211241FBECFE5D8E0DEBFA5
S1130090CDBF10E0A0E6B0E0E2ECFCE002C00590C9
S11300A00D92A237B107D9F720E0A2E7B0E001C072
S11300B01D92A737B207E1F70E9425050C945F064D
S11300C00C940000FC018381982F977086B1887F7F
S11300D0892B86B98081982F9F7187B1807E892B67
S11300E087B98281982F9295990F990F907C87B147
S11300F08F73892B87B9918187B190FB85F987B973
S1130100948186B190FB83F986B98481813049F466
S11301108FB780688FBF8581968190937300809399
S1130120720086B1806886B9089586B1806486B904
S1130130349BFECF84B195B10895CF93DF93DC0156
S1130140EB01E8814E2F50E04930510508F0A7C17A
S1130150FA01E65DFF4F0C94ED058981813091F041
S113016018F08230E9F09BC111968C9111978E7F23
S113017011968C93119712968C9112978E7F1296EA
S11301808C938DC111968C9111978E7F11968C93BF
S1130190119712968C911297816012968C937FC15D
S11301A011968C911197816011968C9311971296E8
S11301B08C9112978E7F12968C9371C189818130B4
S11301C091F018F08230E9F06AC111968C91119780
S11301D08D7F11968C93119712968C9112978D7F27
S11301E012968C935CC111968C9111978D7F119608
S11301F08C93119712968C911297826012968C931D
S11302004EC111968C911197826011968C9311971F
S113021012968C9112978D7F12968C9340C189818E
S1130220813091F018F08230E9F039C111968C9147
S113023011978B7F11968C93119712968C9112972C
S11302408B7F12968C932BC111968C9111978B7F77
S113025011968C93119712968C9112978460129632
S11302608C931DC111968C911197846011968C9377
S1130270119712968C9112978B7F12968C930FC1C3
S11302808981813091F018F08230E9F008C111962B
S11302908C911197877F11968C93119712968C915C
S11302A01297877F12968C93FAC011968C911197AE
S11302B0877F11968C93119712968C911297886070
S11302C012968C93ECC011968C91119788601196BC
S11302D08C93119712968C911297877F12968C9318
S11302E0DEC08981813091F018F08230E9F0D7C006
S11302F011968C9111978F7E11968C93119712966B
S11303008C9112978F7E12968C93C9C011968C9102
S113031011978F7E11968C93119712968C91129748
S1130320806112968C93BBC011968C911197806159
S113033011968C93119712968C9112978F7E129628
S11303408C93ADC08981813091F018F08230E9F04E
S1130350A6C011968C9111978F7D11968C9311974D
S113036012968C9112978F7D12968C9398C0119649
S11303708C9111978F7D11968C93119712968C9175
S11303801297806212968C938AC011968C91119761
S1130390806211968C93119712968C9112978F7D8F
S11303A012968C937CC08981813091F018F0823050
S11303B0E9F075C011968C9111978F7B11968C93EF
S11303C0119712968C9112978F7B12968C9367C01B
S11303D011968C9111978F7B11968C93119712968D
S11303E08C911297806412968C9359C011968C91BB
S11303F01197806411968C93119712968C91129791
S11304008F7B12968C934BC08981813091F018F0C8
S11304108230E9F044C011968C9111978F77119630
S11304208C93119712968C9112978F7712968C93C6
S113043036C011968C9111978F7711968C931197E2
S113044012968C911297806812968C9328C01196FC
S11304508C911197806811968C93119712968C91B8
S113046012978F7712968C931AC08981813051F03C
S113047018F0823071F013C011961C9211971296E5
S11304801C920DC011961C9211978FEF12968C93AB
S113049006C08FEF11968C93119712961C92DF91E0
S11304A0CF910895462F50E04830510588F5FA0160
S11304B0ED5CFF4F0C94ED05FC0180818170089583
S11304C0FC018081869581700895FC01808182FB06
S11304D0882780F90895FC01808183FB882780F9AF
S11304E00895FC018081829581700895FC018081CA
S11304F085FB882780F90895FC01808186FB882785
S113050080F90895FC01808187FB882780F908958C
S113051080E00895FC01808108950F931F93062FB6
S113052010E00830110508F064C0F801E55CFF4FE5
S11305300C94ED05442329F0FC01228121602283DF
S113054058C0FC0122812E7F228353C0442329F00A
S1130550FC012281226022834CC0FC0122812D7F78
S1130560228347C0442329F0FC0122812460228392
S113057040C0FC0122812B7F22833BC0442329F00D
S1130580FC0122812860228334C0FC012281277F60
S113059022832FC0442329F0FC012281206122837D
S11305A028C0FC0122812F7E228323C0442329F00A
S11305B0FC012281206222831CC0FC0122812F7D48
S11305C0228317C0442329F0FC0122812064228362
S11305D010C0FC0122812F7B22830BC0442329F00D
S11305E0FC0122812068228304C0FC0122812F7730
S11305F022831F910F910895FC0162830895CF9384
S1130600DF93CDB7DEB728970FB6F894DEBF0FBEE1
S1130610CDBFAB01BC0119821A821B821C8224C08B
S11306201D821E821F8218860BC08D819E81AF8120
S1130630B8850196A11DB11D8D839E83AF83B887B4
S11306408D819E81AF81B88580349105A105B10566
S113065060F389819A81AB81BC810196A11DB11D92
S113066089839A83AB83BC8389819A81AB81BC8162
S113067084179507A607B70798F228960FB6F8943B
S1130680DEBF0FBECDBFDF91CF91089541E062E0A0
S113069089E390E00E948D0261E070E080E090E0E8
S11306A00E94FF0240E062E089E390E00E948D0234
S11306B00895CF93C0E00FC0EC2FF0E0ED59FF4F49
S11306C08081E5E7F0E080831182BF0189E390E057
S11306D00E949D00CF5FC43078F340E060E089E37E
S11306E090E00E948D0241E061E089E390E00E9485
S11306F08D020E94460302C00E9446036091660078
S113070089E390E00E9452028823B1F30E944603D9
S113071040E061E089E390E00E948D02C0E010C0F7
S1130720EC2FF0E0ED59FF4F8081E5E7F0E08083A6
S113073082E08183BF0189E390E00E949D00CF5F46
S1130740C43070F3CF910895CF93DF93C82F0E94E4
S1130750590389E390E00E948A02D82F6C2F669592
S11307606877682B89E390E00E94FC0240E060E037
S113077089E390E00E948D0240E061E089E390E02B
S11307800E948D020E9446038C2F90E0880F991FCF
S1130790880F991F880F991F8877682F6D2B89E31D
S11307A090E00E94FC0240E060E089E390E00E9457
S11307B08D0240E061E089E390E00E948D020E9496
S11307C04603DF91CF91089581E00E94A403109223
S11307D0740008951F93CF93DF9369E170E080E084
S11307E090E00E94FF0210E016C0C12FD0E0CD5966
S11307F0DF4F8881E5E7F0E0808382E08183BF01F9
S113080089E390E00E949D0040E0688189E390E0E4
S11308100E948D021F5F143040F310E016C0C12FF8
S1130820D0E0C05ADF4F8881E5E7F0E0808382E0C2
S11308308183BF0189E390E00E949D0040E06881CC
S113084089E390E00E948D021F5F133040F36FE054
S113085070E080E090E00E94FF0282E00E94A40326
S113086088E20E94A40386E00E94A40380E80E9418
S1130870A4038CE00E94A403DF91CF911F910895FB
S1130880CF93C62F813079F028F08230B1F08330D5
S1130890F1F026C0603120F580E8860F0E94A403A1
S11308A0C09374001DC06031D8F480EC860F0E94A0
S11308B0A403C05FC093740013C0603188F480E95E
S11308C0860F0E94A403C05EC093740009C0603107
S11308D038F480ED860F0E94A403C05DC0937400B9
S11308E0CF910895CF93DF93C82F80917400803205
S11308F031F40E94E40360E080E00E9440040E941E
S1130900590389E390E00E948A02D82F6C2F6695E0
S11309106877682B89E390E00E94FC0241E060E084
S113092089E390E00E948D0240E061E089E390E079
S11309300E948D020E9446038C2F90E0880F991F1D
S1130940880F991F880F991F8877682F6D2B89E36B
S113095090E00E94FC0241E060E089E390E00E94A4
S11309608D0240E061E089E390E00E948D020E94E4
S11309704603809174008F5F80937400803121F46A
S113098060E081E00E944004DF91CF910895CF930D
S1130990DF93EC0103C00E947204219688818111C7
S11309A0FACFDF91CF910895AF92BF92CF92DF92A9
S11309B0EF92FF920F931F93CF936B017C018A01F7
S11309C084E6C816D104E104F10428F1C701B60194
S11309D024E630E040E050E00E94CB05205DF801C1
S11309E02083C1E013C05801AC0EB11CC701B6018D
S11309F02AE030E040E050E00E94CB05605DF50164
S1130A006083C22ED32EE42EF52ECF5FC33058F36D
S1130A10F801138210C0C701B6012AE030E040E0BB
S1130A2050E00E94CB05205DF8012083605D618366
S1130A3080E282831382CF911F910F91FF90EF90F8
S1130A40DF90CF90BF90AF900895CF93DF93CDB751
S1130A50DEB763970FB6F894DEBF0FBECDBF198221
S1130A601A821B821C8282E094E0A0E0B0E08D83B5
S1130A709E83AF83B8870E94EA031E8687E08D8732
S1130A80198A86E0888B81E08F871B8A1A8ACE01B7
S1130A900D960E94620087E690E00E94C7040E94BF
S1130AA09500A0E0B0E089839A83AB83BC8349813D
S1130AB05A816B817C818D819E81AF81B885481775
S1130AC059076A077B0759F360E081E00E944004FC
S1130AD010E004C080E00E9472041F5F1031D0F364
S1130AE069E080E00E94400489819A81AB81BC81E5
S1130AF08D839E83AF83B88729813A814B815C8142
S1130B00A4E6B0E00E94F3052FEF33E040E050E0AC
S1130B100E94CB0529833A834B835C8369817A8164
S1130B208B819C81AE01475F5F4F0E94D404CE014C
S1130B3009960E94C70485E20E94720460E081E085
S1130B400E94400410E004C08FEF0E9472041F5FF3
S1130B50412E512C612C712C69817A818B819C816D
S1130B602BEA3AEA4AEA5AEA0E94FE0500E20E94A7
S1130B702B06822E932EA42EB52EB694A79497946A
S1130B808794B694A79497948794481459046A0454
S1130B907B04D0F284CFA1E21A2EAA1BBB1BFD0159
S1130BA00DC0AA1FBB1FEE1FFF1FA217B307E40748
S1130BB0F50720F0A21BB30BE40BF50B661F771FA0
S1130BC0881F991F1A9469F7609570958095909580
S1130BD09B01AC01BD01CF010895EE0FFF1F0590ED
S1130BE0F491E02D09940E944706A59F900DB49FAF
S1130BF0900DA49F800D911D11240895E894DF9316
S1130C00CF93FC01DB010E9447067F936F93E901B8
S1130C109A01AC01BF93AF933F932F93DF010E94DE
S1130C20470626F46C1B7D0B820B930B9E01EB0194
S1130C30FC010E945606AF91BF912F913F910E94F3
S1130C405606BE01CF01F9012F913F91CF91DF915B
S1130C50089597FB10F8169400080F93083098F045
S1130C600850232F342F452F562F672F782F892F85
S1130C70902DF4CF0594979587957795679557951B
S1130C804795379527950A95AAF70F910895A29F3E
S1130C90B001B39FC001A39F700D811D1124911D4C
S1130CA0B29F700D811D1124911D08950E94470665
S1130CB0460F571FC81FD91F08F431960895F8949A
S1050CC0FFCF60
S1130CC20001020304050650657263656E743A20DE
S1050CD200001C
S9030000FC
