:100000000C942A000C9447000C9447000C94470071
:100010000C9447000C9447000C9447000C94470044
:100020000C9447000C9447000C9447000C94470034
:100030000C9447000C9447000C9447000C94470024
:100040000C9447000C9447000C9447000C94470014
:100050000C94470011241FBECFE5D8E0DEBFCDBF12
:1000600010E0A0E6B0E0EAE3F1E002C005900D92F6
:10007000A636B107D9F710E0A6E6B0E001C01D92A0
:10008000A636B107E1F70E9449000C949B000C943E
:100090000000E0916200F091630080818E7F808398
:1000A000E0916200F0916300808180628083E09142
:1000B0006200F0916300808180648083E09162003F
:1000C000F0916300808180688083E0916400F0910A
:1000D0006500108290E031E020E001C0922FE091B5
:1000E0006000F0916100808180FF21C09923F9F4C4
:1000F000E0916400F0916500808185FF08C08081F7
:1001000086FD05C0808180648083932FE8CF808145
:1001100085FF08C0808186FF05C08081806880835C
:10012000932FDDCF808180628083932FD8CF808111
:0A01300080FFD4CFD4CFF894FFCFA6
:06013A003000310032002C
:00000001FF
