:100000000C9443000C9460000C9460000C9460000D
:100010000C9460000C9460000C9460000C946000E0
:100020000C9460000C9460000C9460000C946000D0
:100030000C9460000C9460000C9460000C946000C0
:100040000C9460000C9460000C9460000C946000B0
:100050000C9460007200A300D40005013601670112
:100060009801C901FA01210225022A023002360252
:100070003B02410247025C026802740280028C0269
:100080009802A402B00211241FBECFE5D8E0DEBF63
:10009000CDBF10E0A0E6B0E0E2E0F9E002C00590DC
:1000A0000D92A637B107D9F720E0A6E7B0E001C06E
:1000B0001D92A937B207E1F70E9472040C947F04E5
:1000C0000C940000CF93DF93DC01EB01E8814E2F0D
:1000D00050E04930510508F0A7C1FA01E65DFF4F35
:1000E0000C9479048981813091F018F08230E9F024
:1000F0009BC111968C9111978E7F11968C931197BD
:1001000012968C9112978E7F12968C938DC11196B8
:100110008C9111978E7F11968C93119712968C91DA
:100120001297816012968C937FC111968C911197D2
:10013000816011968C93119712968C9112978E7FF5
:1001400012968C9371C18981813091F018F08230C0
:10015000E9F06AC111968C9111978D7F11968C935D
:10016000119712968C9112978D7F12968C935CC189
:1001700011968C9111978D7F11968C9311971296F1
:100180008C911297826012968C934EC111968C912D
:100190001197826011968C93119712968C911297F9
:1001A0008D7F12968C9340C18981813091F018F037
:1001B0008230E9F039C111968C9111978B7F11969D
:1001C0008C93119712968C9112978B7F12968C9329
:1001D0002BC111968C9111978B7F11968C9311974F
:1001E00012968C911297846012968C931DC1119671
:1001F0008C911197846011968C93119712968C9123
:1002000012978B7F12968C930FC18981813091F068
:1002100018F08230E9F008C111968C911197877F10
:1002200011968C93119712968C911297877F129644
:100230008C93FAC011968C911197877F11968C93AD
:10024000119712968C911297886012968C93ECC03D
:1002500011968C911197886011968C931197129634
:100260008C911297877F12968C93DEC089818130A2
:1002700091F018F08230E9F0D7C011968C91119767
:100280008F7E11968C93119712968C9112978F7E78
:1002900012968C93C9C011968C9111978F7E1196EE
:1002A0008C93119712968C911297806112968C9371
:1002B000BBC011968C911197806111968C93119708
:1002C00012968C9112978F7E12968C93ADC0898175
:1002D000813091F018F08230E9F0A6C011968C912F
:1002E00011978F7D11968C93119712968C9112977E
:1002F0008F7D12968C9398C011968C9111978F7D5B
:1003000011968C93119712968C9112978062129687
:100310008C938AC011968C911197806211968C9360
:10032000119712968C9112978F7D12968C937CC0A8
:100330008981813091F018F08230E9F075C0119612
:100340008C9111978F7B11968C93119712968C91AB
:1003500012978F7B12968C9367C011968C91119790
:100360008F7B11968C93119712968C9112978064C3
:1003700012968C9359C011968C91119780641196A6
:100380008C93119712968C9112978F7B12968C9367
:100390004BC08981813091F018F08230E9F044C07F
:1003A00011968C9111978F7711968C9311971296C5
:1003B0008C9112978F7712968C9336C011968C91F0
:1003C00011978F7711968C93119712968C911297A3
:1003D000806812968C9328C011968C911197806832
:1003E00011968C93119712968C9112978F77129683
:1003F0008C931AC08981813051F018F0823071F0ED
:1004000013C011961C92119712961C920DC0119652
:100410001C9211978FEF12968C9306C08FEF119656
:100420008C93119712961C92DF91CF910895462FCD
:1004300050E04830510588F5FA01ED5CFF4F0C940F
:100440007904FC01808181700895FC01808186958A
:1004500081700895FC01808182FB882780F90895CE
:10046000FC01808183FB882780F90895FC0180814D
:10047000829581700895FC01808185FB882780F931
:100480000895FC01808186FB882780F90895FC018E
:10049000808187FB882780F9089580E008950F9375
:1004A0001F93062F10E00830110508F064C0F80112
:1004B000E55CFF4F0C947904442329F0FC01228170
:1004C0002160228358C0FC0122812E7F228353C0E9
:1004D000442329F0FC012281226022834CC0FC01CC
:1004E00022812D7F228347C0442329F0FC012281F1
:1004F0002460228340C0FC0122812B7F22833BC0E9
:10050000442329F0FC0122812860228334C0FC01AD
:100510002281277F22832FC0442329F0FC012281DE
:100520002061228328C0FC0122812F7E228323C0E8
:10053000442329F0FC012281206222831CC0FC019B
:1005400022812F7D228317C0442329F0FC012281C0
:100550002064228310C0FC0122812F7B22830BC0E8
:10056000442329F0FC0122812068228304C0FC017D
:1005700022812F7722831F910F910895FC016283BE
:100580000895CF93DF93CDB7DEB728970FB6F894D1
:10059000DEBF0FBECDBFAB01BC0119821A821B8228
:1005A0001C8224C01D821E821F8218860BC08D8172
:1005B0009E81AF81B8850196A11DB11D8D839E835B
:1005C000AF83B8878D819E81AF81B88580349105D6
:1005D000A105B10560F389819A81AB81BC81019647
:1005E000A11DB11D89839A83AB83BC8389819A81C4
:1005F000AB81BC8184179507A607B70798F22896A8
:100600000FB6F894DEBF0FBECDBFDF91CF91089536
:1006100040E063E086E390E00E944F0261E070E01A
:1006200080E090E00E94C10241E063E086E390E058
:100630000E944F020895CF93C0E00FC0EC2FF0E06E
:10064000ED59FF4F8081E7E7F0E080831182BF0121
:1006500089E390E00E946200CF5FC43078F340E00D
:1006600061E086E390E00E944F0241E062E086E3B1
:1006700090E00E944F020E94080302C00E940803FB
:100680006091660089E390E00E9417028130B1F327
:100690000E94080340E062E086E390E00E944F027F
:1006A000C0E010C0EC2FF0E0ED59FF4F8081E7E78C
:1006B000F0E0808382E08183BF0189E390E00E94C3
:1006C0006200CF5FC43070F3CF910895CF93C82FED
:1006D0000E941B036C2F89E390E00E94BE0240E061
:1006E00061E086E390E00E944F0240E062E086E332
:1006F00090E00E944F020E9408036C2F6295607F79
:1007000089E390E00E94BE0240E061E086E390E071
:100710000E944F0240E062E086E390E00E944F02B8
:100720000E940803CF91089581E00E946603109211
:10073000760008951F93CF93DF9369E170E080E026
:1007400090E00E94C10210E016C0C12FD0E0CD5948
:10075000DF4F8881E7E7F0E0808382E08183BF019B
:1007600089E390E00E94620040E0688189E390E0C4
:100770000E944F021F5F143040F310E016C0C12FDB
:10078000D0E0C05ADF4F8881E7E7F0E0808382E065
:100790008183BF0186E390E00E94620040E06881AF
:1007A00086E390E00E944F021F5F133040F36FE03A
:1007B00070E080E090E00E94C10282E00E94660347
:1007C00088E20E94660386E00E94660380E80E9439
:1007D00066038FE00E946603DF91CF911F91089519
:1007E000CF93C62F813079F028F08230B1F083307A
:1007F000F1F026C0603120F580E8860F0E94660384
:10080000C09376001DC06031D8F480EC860F0E9442
:100810006603C05FC093760013C0603188F480E93E
:10082000860F0E946603C05EC093760009C06031E7
:1008300038F480ED860F0E946603C05DC093760099
:10084000CF910895CF93C82F80917600803231F4F4
:100850000E94940360E080E00E94F0030E941B036A
:100860006C2F89E390E00E94BE0241E061E086E3E4
:1008700090E00E944F0240E062E086E390E00E9438
:100880004F020E9408036C2F6295607F89E390E01D
:100890000E94BE0241E061E086E390E00E944F02C8
:1008A00040E062E086E390E00E944F020E9408036D
:1008B000809176008F5F80937600803121F460E034
:1008C00081E00E94F003CF910895CF93DF93EC0174
:1008D00003C00E942204219688818111FACFDF9102
:1008E000CF9108950E949A0387E690E00E946504E4
:1008F000FFCFEE0FFF1F0590F491E02D0994F894BF
:02090000FFCF27
:10090200010203040506074C6561726E20696E20C0
:06091200446570746800EA
:00000001FF
