:020000040800F2
:1000000000500020C51B0008151C0008151C000826
:10001000151C0008151C0008151C00080000000035
:10002000000000000000000000000000151C000897
:10003000151C000800000000151C0008151C000815
:10004000151C0008151C0008151C0008151C0008CC
:10005000151C0008151C000885040008A5040008EC
:10006000C5040008E504000805050008151C000883
:10007000151C0008151C0008151C0008151C00089C
:10008000151C0008151C0008151C0008151C00088C
:10009000151C0008151C0008151C00082505000883
:1000A000151C0008151C0008151C0008151C00086C
:1000B000151C0008151C0008151C0008C51A0008AE
:1000C000151C0008D11A0008151C0008DD1A0008CC
:1000D000F11A0008051B0008191B00082D1B000859
:1000E000D5050008151C000800000000151C0008BC
:1000F000151C0008151C0008151C0008151C00081C
:10010000151C0008151C0008151C0008151C00080B
:10011000151C0008151C0008151C0008151C0008FB
:10012000151C0008151C0008151C0008151C0008EB
:1001300010B5054C237833B9044B13B10448AFF321
:1001400000800123237010BD00000020000000008B
:10015000601C000808B5034B1BB103490348AFF30B
:10016000008008BD0000000004000020601C0008A2
:1001700080B584B000AF78607B681B783B72012348
:100180007B720023BB727B685B6807F10802114633
:10019000184600F087FA7B681B7B022B36D0022BB7
:1001A0004BDC002B02D0012B18D046E0AA4B9B68F9
:1001B0007A68127A114601228A40D2431146A64A31
:1001C0000B409360A44BDB687A68127A11460122D7
:1001D0008A401146A04A0B43D3602EE09E4B9B6899
:1001E0007A68127A114601228A4011469A4A0B43D4
:1001F0009360994BDB687A68127A114601228A4033
:10020000D2431146944A0B40D36016E0924B9B6850
:100210007A68127A114601228A4011468E4A0B43AF
:1002200093608D4BDB687A68127A114601228A400E
:100230001146894A0B43D36000BF7B681B7A9B0839
:10024000FB737B681B7A03F00303BB73FB7B002B00
:100250000BD1824B9B68BA7B9200012101FA02F21A
:1002600011467E4A0B4393602BE0FB7B012B0BD1A5
:100270007A4BDB68BA7B9200012101FA02F2114647
:10028000764A0B43D3601CE0FB7B022B0BD1734BF4
:100290001B69BA7B9200012101FA02F211466F4AF2
:1002A0000B4313610DE0FB7B032B0AD16B4B5B69A6
:1002B000BA7B9200012101FA02F21146674A0B4310
:1002C00053617B681B7A19467B681B69644A42F854
:1002D00021307B685B7B012B5CD15F4B1B687A68AC
:1002E000127A114601228A4011465B4A0B43136081
:1002F0007B681B7A0F2B00F2AB8001A252F823F02F
:10030000410300084D030008590300086503000875
:10031000710300087D0300087D0300087D030008C9
:100320007D0300087D030008890300088903000895
:10033000890300088903000889030008890300086D
:10034000484A136843F04003136081E0454A13684C
:1003500043F0800313607BE0424A136843F48073E8
:10036000136075E03F4A136843F0800313606FE049
:100370003C4A136843F08003136069E0394A13680C
:1003800043F40003136063E0364A536843F4807318
:1003900053605DE0304B1B687A68127A1146012287
:1003A0008A40D24311462C4A0B4013607B681B7A6B
:1003B0000F2B4DD801A252F823F000BFFD03000817
:1003C0000904000815040008210400082D04000891
:1003D0003904000839040008390400083904000809
:1003E00039040008450400084504000845040008D5
:1003F0004504000845040008450400081A4A13682B
:1004000043F04003136023E0174A136843F080036E
:1004100013601DE0144A136843F48073136017E0FF
:10042000114A136843F08003136011E00E4A136809
:1004300043F0800313600BE00B4A136843F400039E
:10044000136005E0084A536843F48073536000BFAB
:1004500000BF1037BD4680BD0004014000000140D0
:100460001C00002000E100E080E100E080B582B0E7
:1004700000AF78607868FFF77BFE00BF0837BD46A5
:1004800080BD000080B500AF044A536943F001030A
:100490005361034B1B68984700BF80BD00040140B7
:1004A0001C00002080B500AF044A536943F00203EA
:1004B0005361034B5B68984700BF80BD0004014057
:1004C0001C00002080B500AF044A536943F00403C8
:1004D0005361034B9B68984700BF80BD00040140F7
:1004E0001C00002080B500AF044A536943F00803A4
:1004F0005361034BDB68984700BF80BD0004014097
:100500001C00002080B500AF044A536943F010037B
:100510005361034B1B69984700BF80BD0004014035
:100520001C00002080B500AF284B5B69C3F340136B
:10053000DBB2002B08D0254A536943F020035361F6
:10054000234B5B6998473EE0204B5B69C3F3801304
:10055000DBB2002B08D01D4A536943F040035361BE
:100560001B4B9B6998472EE0184B5B69C3F3C01384
:10057000DBB2002B08D0154A536943F08003536166
:10058000134BDB6998471EE0104B5B69C3F30023F4
:10059000DBB2002B08D00D4A536943F480735361DA
:1005A0000B4B1B6A98470EE0084B5B69C3F3402373
:1005B000DBB2002B07D0064B5B6A9847034A5369AE
:1005C00043F40073536100BF80BD00BF00040140CD
:1005D0001C00002080B500AF304B5B69C3F3802363
:1005E000DBB2002B08D02D4A536943F4806353617A
:1005F0002B4B9B6A98474EE0284B5B69C3F3C023A3
:10060000DBB2002B08D0254A536943F400635361E1
:10061000234BDB6A98473EE0204B5B69C3F3003312
:10062000DBB2002B08D01D4A536943F48053536159
:100630001B4B1B6B98472EE0184B5B69C3F3403391
:10064000DBB2002B08D0154A536943F400535361C1
:10065000134B5B6B98471EE0104B5B69C3F3803311
:10066000DBB2002B08D00D4A536943F48043536139
:100670000B4B9B6B98470EE0084B5B69C3F3C03391
:10068000DBB2002B07D0054A536943F400435361A2
:10069000034BDB6B984700BF80BD00BF00040140E7
:1006A0001C00002080B483B000AF786039603B68E4
:1006B0001B78102B01F2018201A252F823F000BF37
:1006C000050700081F0800083B090008570A000832
:1006D000730B00088F0C0008AB0D0008C70E000854
:1006E000E30F0008FF1000081B1200083513000874
:1006F0004D140008651500087D16000895170008C0
:10070000AD1800083B689B78012B06D17A68136806
:10071000012161F30103136013E03B689B78022B16
:1007200006D17A681368022161F30103136008E0BF
:100730003B689B78032B04D17A68136843F003036A
:1007400013603B685B78002B0BD03B685B78012B18
:1007500007D03B685B78022B03D03B685B78032BA8
:1007600004D17A6813686FF3010313603B685B7808
:10077000072B01F2818101A252F823F09D070008A6
:10078000A9070008B7070008CF070008E707000817
:10079000F3070008010800080F0800087A681368CA
:1007A0006FF38303136038E07A681368012161F303
:1007B0008303136031E07A681368022161F38303D5
:1007C00013607A68136943F00103136125E07A68C6
:1007D0001368022161F3830313607A68536943F05D
:1007E0000103536119E07A6813686FF383031360A0
:1007F00013E07A681368012161F3830313600CE04E
:100800007A681368022161F38303136005E07A6854
:10081000136843F00C03136000BF01F02DB93B686F
:100820009B78012B06D17A681368012161F30513C7
:10083000136013E03B689B78022B06D17A6813683B
:10084000022161F30513136008E03B689B78032BDA
:1008500004D17A68136843F0300313603B685B7817
:10086000002B0BD03B685B78012B07D03B685B7893
:10087000022B03D03B685B78032B04D17A681368A2
:100880006FF3051313603B685B78072B01F2F6806A
:1008900001A252F823F000BFB9080008C5080008FB
:1008A000D3080008EB080008030900080F09000836
:1008B0001D0900082B0900087A6813686FF3871375
:1008C000136038E07A681368012161F387131360BD
:1008D00031E07A681368022161F3871313607A6844
:1008E000136943F00203136125E07A68136802215B
:1008F00061F3871313607A68536943F0020353610D
:1009000019E07A6813686FF38713136013E07A684D
:100910001368012161F3871313600CE07A68136890
:10092000022161F38713136005E07A68136843F0CE
:10093000C003136000BF01F0A1B83B689B78012B96
:1009400006D17A681368012161F30923136013E06B
:100950003B689B78022B06D17A681368022161F309
:100960000923136008E03B689B78032B04D17A6865
:10097000136843F4407313603B685B78002B0BD023
:100980003B685B78012B07D03B685B78022B03D078
:100990003B685B78032B04D17A6813686FF30923F3
:1009A00013603B685B78072B01F26A8001A252F862
:1009B00023F000BFD5090008E1090008EF0900088D
:1009C000070A00081F0A00082B0A0008390A000855
:1009D000470A00087A6813686FF38B23136038E0C6
:1009E0007A681368012161F38B23136031E07A6820
:1009F0001368022161F38B2313607A68136943F053
:100A00000403136125E07A681368022161F38B23E4
:100A100013607A68536943F00403536119E07A68FC
:100A200013686FF38B23136013E07A681368012156
:100A300061F38B2313600CE07A681368022161F381
:100A40008B23136005E07A68136843F440631360F6
:100A500000BF01F015B83B689B78012B06D17A687E
:100A60001368012161F30D33136013E03B689B7839
:100A7000022B06D17A681368022161F30D331360EB
:100A800008E03B689B78032B04D17A68136843F431
:100A9000405313603B685B78002B0BD03B685B785E
:100AA000012B07D03B685B78022B03D03B685B7857
:100AB000032B04D17A6813686FF30D3313603B681E
:100AC0005B78072B00F2DE8701A252F823F000BF0B
:100AD000F10A0008FD0A00080B0B0008230B0008B0
:100AE0003B0B0008470B0008550B0008630B000880
:100AF0007A6813686FF38F33136038E07A6813688D
:100B0000012161F38F33136031E07A6813680221A9
:100B100061F38F3313607A68136943F0080313613C
:100B200025E07A681368022161F38F3313607A68D5
:100B3000536943F00803536119E07A6813686FF34F
:100B40008F33136013E07A681368012161F38F33E8
:100B500013600CE07A681368022161F38F3313602D
:100B600005E07A68136843F44043136000BF00F067
:100B700089BF3B689B78012B06D17A6813680121F5
:100B800061F31143136013E03B689B78022B06D19D
:100B90007A681368022161F31143136008E03B682F
:100BA0009B78032B04D17A68136843F440331360B5
:100BB0003B685B78002B0BD03B685B78012B07D040
:100BC0003B685B78022B03D03B685B78032B04D136
:100BD0007A6813686FF3114313603B685B78072BE7
:100BE00000F2528701A252F823F000BF0D0C00085A
:100BF000190C0008270C00083F0C0008570C0008CF
:100C0000630C0008710C00087F0C00087A681368F8
:100C10006FF39343136038E07A681368012161F33E
:100C20009343136031E07A681368022161F39343C0
:100C300013607A68136943F01003136125E07A6842
:100C40001368022161F3934313607A68536943F098
:100C50001003536119E07A6813686FF393431360CC
:100C600013E07A681368012161F3934313600CE089
:100C70007A681368022161F39343136005E07A6890
:100C8000136843F44023136000BF00F0FDBE3B68CF
:100C90009B78012B06D17A681368012161F3155303
:100CA000136013E03B689B78022B06D17A681368C7
:100CB000022161F31553136008E03B689B78032B16
:100CC00004D17A68136843F4401313603B685B787F
:100CD000002B0BD03B685B78012B07D03B685B781F
:100CE000022B03D03B685B78032B04D17A6813682E
:100CF0006FF3155313603B685B78072B00F2C686D1
:100D000001A252F823F000BF290D0008350D00089C
:100D1000430D00085B0D0008730D00087F0D0008EF
:100D20008D0D00089B0D00087A6813686FF39753C8
:100D3000136038E07A681368012161F397531360F8
:100D400031E07A681368022161F3975313607A687F
:100D5000136943F02003136125E07A6813680221C8
:100D600061F3975313607A68536943F0200353612A
:100D700019E07A6813686FF39753136013E07A6889
:100D80001368012161F3975313600CE07A681368CC
:100D9000022161F39753136005E07A68136843F406
:100DA0004003136000BF00F071BE3B689B78012BCD
:100DB00006D17A681368012161F31963136013E0A7
:100DC0003B689B78022B06D17A681368022161F395
:100DD0001963136008E03B689B78032B04D17A68A1
:100DE000136843F0407313603B685B78002B0BD0B3
:100DF0003B685B78012B07D03B685B78022B03D004
:100E00003B685B78032B04D17A6813686FF319632E
:100E100013603B685B78072B00F23A8601A252F818
:100E200023F000BF450E0008510E00085F0E0008B9
:100E3000770E00088F0E00089B0E0008A90E000810
:100E4000B70E00087A6813686FF39B63136038E08D
:100E50007A681368012161F39B63136031E07A685B
:100E60001368022161F39B6313607A68136943F08E
:100E70004003136125E07A681368022161F39B63E4
:100E800013607A68536943F04003536119E07A684C
:100E900013686FF39B63136013E07A681368012192
:100EA00061F39B6313600CE07A681368022161F3BD
:100EB0009B63136005E07A68136843F04063136036
:100EC00000BF00F0E5BD3B689B78012B06D17A6836
:100ED0001368012161F31D73136013E03B689B7875
:100EE000022B06D17A681368022161F31D73136027
:100EF00008E03B689B78032B04D17A68136843F0C1
:100F0000405313603B685B78002B0BD03B685B78E9
:100F1000012B07D03B685B78022B03D03B685B78E2
:100F2000032B04D17A6813686FF31D7313603B6859
:100F30005B78072B00F2AE8501A252F823F000BFC8
:100F4000610F00086D0F00087B0F0008930F000869
:100F5000AB0F0008B70F0008C50F0008D30F00083B
:100F60007A6813686FF39F73136038E07A681368C8
:100F7000012161F39F73136031E07A6813680221E5
:100F800061F39F7313607A68136943F08003136100
:100F900025E07A681368022161F39F7313607A6811
:100FA000536943F08003536119E07A6813686FF363
:100FB0009F73136013E07A681368012161F39F73D4
:100FC00013600CE07A681368022161F39F73136069
:100FD00005E07A68136843F04043136000BF00F0F7
:100FE00059BD3B689B78012B06D17A685368012173
:100FF00061F30103536013E03B689B78022B06D139
:101000007A685368022161F30103536008E03B688A
:101010009B78032B04D17A68536843F00303536031
:101020003B685B78002B0BD03B685B78012B07D0CB
:101030003B685B78022B03D03B685B78032B04D1C1
:101040007A6853686FF3010353603B685B78072B42
:1010500000F2228501A252F823F000BF7D100008A3
:101060008910000897100008AF100008C71000088A
:10107000D3100008E1100008EF1000087A685368E8
:101080006FF38303536038E07A685368012161F39A
:101090008303536031E07A685368022161F383036C
:1010A00053607A68136943F48073136125E07A68AA
:1010B0005368022161F3830353607A68536943F4F0
:1010C0008073536119E07A6853686FF38303536048
:1010D00013E07A685368012161F3830353600CE0E5
:1010E0007A685368022161F38303536005E07A68EC
:1010F000536843F00C03536000BF00F0CDBC3B6865
:101100009B78012B06D17A685368012161F305139E
:10111000536013E03B689B78022B06D17A685368D2
:10112000022161F30513536008E03B689B78032BB1
:1011300004D17A68536843F0300353603B685B78AE
:10114000002B0BD03B685B78012B07D03B685B78AA
:10115000022B03D03B685B78032B04D17A68536879
:101160006FF3051353603B685B78072B00F296849E
:1011700001A252F823F000BF99110008A511000840
:10118000B3110008CB110008E3110008EF110008AB
:10119000FD1100080B1200087A6853686FF387137B
:1011A000536038E07A685368012161F38713536014
:1011B00031E07A685368022161F3871353607A68DB
:1011C000136943F40073136125E07A6853680221C0
:1011D00061F3871353607A68536943F40073536172
:1011E00019E07A6853686FF38713536013E07A68E5
:1011F0005368012161F3871353600CE07A685368E8
:10120000022161F38713536005E07A68536843F065
:10121000C003536000BF00F041BC3B689B78012BCA
:1012200006D17A685368012161F30923536013E002
:101230003B689B78022B06D17A685368022161F3E0
:101240000923536008E03B689B78032B04D17A683C
:10125000536843F4407353603B685B78002B0BD0BA
:101260003B685B78012B07D03B685B78022B03D08F
:101270003B685B78032B04D17A6853686FF30923CA
:1012800053603B685B78072B00F20A8401A252F896
:1012900023F000BFB5120008C1120008CF120008E9
:1012A000E7120008FF1200080B13000819130008CA
:1012B000271300087A6853686FF38B23536038E074
:1012C0007A685368012161F38B23536031E07A68B7
:1012D0005368022161F38B2353607A68136943F4E6
:1012E0008063136125E07A685368022161F38B23E0
:1012F00053607A68536943F48063536119E07A68F4
:1013000053686FF38B23536013E07A6853680121AD
:1013100061F38B2353600CE07A685368022161F318
:101320008B23536005E07A68536843F4406353604D
:1013300000BFB5E33B689B78012B06D17A68536800
:10134000012161F30D33536013E03B689B78022B5E
:1013500006D17A685368022161F30D33536008E0C7
:101360003B689B78032B04D17A68536843F440535D
:1013700053603B685B78002B0BD03B685B78012B9C
:1013800007D03B685B78022B03D03B685B78032B6C
:1013900004D17A6853686FF30D3353603B685B7810
:1013A000072B00F27F8301A252F823F0CD1300082F
:1013B000D9130008E7130008FF13000817140008EA
:1013C00023140008311400083F1400087A68536899
:1013D0006FF38F33536038E07A685368012161F30B
:1013E0008F33536031E07A685368022161F38F33A1
:1013F00053607A68136943F40063136125E07A68E7
:101400005368022161F38F3353607A68536943F460
:101410000063536119E07A6853686FF38F33536048
:1014200013E07A685368012161F38F3353600CE055
:101430007A685368022161F38F33536005E07A685C
:10144000536843F44043536000BF2BE33B689B78F1
:10145000012B06D17A685368012161F3114353606F
:1014600013E03B689B78022B06D17A68536802210F
:1014700061F31143536008E03B689B78032B04D170
:101480007A68536843F4403353603B685B78002BC1
:101490000BD03B685B78012B07D03B685B78022B55
:1014A00003D03B685B78032B04D17A6853686FF3F1
:1014B000114353603B685B78072B00F2F58201A271
:1014C00052F823F0E5140008F1140008FF14000896
:1014D000171500082F1500083B15000849150008CE
:1014E000571500087A6853686FF39343536038E0E8
:1014F0007A685368012161F39343536031E07A685D
:101500005368022161F3934353607A68136943F48B
:101510008053136125E07A685368022161F3934395
:1015200053607A68536943F48053536119E07A68D1
:1015300053686FF39343536013E07A685368012153
:1015400061F3934353600CE07A685368022161F3BE
:101550009343536005E07A68536843F44023536033
:1015600000BFA1E23B689B78012B06D17A685368E3
:10157000012161F31553536013E03B689B78022B04
:1015800006D17A685368022161F31553536008E06D
:101590003B689B78032B04D17A68536843F440136B
:1015A00053603B685B78002B0BD03B685B78012B6A
:1015B00007D03B685B78022B03D03B685B78032B3A
:1015C00004D17A6853686FF3155353603B685B78B6
:1015D000072B00F26B8201A252F823F0FD150008E0
:1015E00009160008171600082F16000847160008ED
:1015F00053160008611600086F1600087A685368D1
:101600006FF39753536038E07A685368012161F3B0
:101610009753536031E07A685368022161F397531E
:1016200053607A68136943F40053136125E07A68C4
:101630005368022161F3975353607A68536943F406
:101640000053536119E07A6853686FF397535360FE
:1016500013E07A685368012161F3975353600CE0FB
:101660007A685368022161F39753536005E07A6802
:10167000536843F44003536000BF17E23B689B7814
:10168000012B06D17A685368012161F31963536015
:1016900013E03B689B78022B06D17A6853680221DD
:1016A00061F31963536008E03B689B78032B04D116
:1016B0007A68536843F0407353603B685B78002B53
:1016C0000BD03B685B78012B07D03B685B78022B23
:1016D00003D03B685B78032B04D17A6853686FF3BF
:1016E000196353603B685B78072B00F2E18101A22C
:1016F00052F823F015170008211700082F170008CB
:10170000471700085F1700086B17000879170008D3
:10171000871700087A6853686FF39B63536038E05B
:101720007A685368012161F39B63536031E07A6802
:101730005368022161F39B6353607A68136943F431
:101740008043136125E07A685368022161F39B634B
:1017500053607A68536943F48043536119E07A68AF
:1017600053686FF39B63536013E07A6853680121F9
:1017700061F39B6353600CE07A685368022161F364
:101780009B63536005E07A68536843F0406353609D
:1017900000BF8DE13B689B78012B06D17A685368C6
:1017A000012161F31D73536013E03B689B78022BAA
:1017B00006D17A685368022161F31D73536008E013
:1017C0003B689B78032B04D17A68536843F04053FD
:1017D00053603B685B78002B0BD03B685B78012B38
:1017E00007D03B685B78022B03D03B685B78032B08
:1017F00004D17A6853686FF31D7353603B685B785C
:10180000072B00F2578101A252F823F02D1800088F
:1018100039180008471800085F18000877180008F2
:1018200083180008911800089F1800087A68536808
:101830006FF39F73536038E07A685368012161F356
:101840009F73536031E07A685368022161F39F739C
:1018500053607A68136943F40043136125E07A68A2
:101860005368022161F39F7353607A68536943F4AC
:101870000043536119E07A6853686FF39F735360B4
:1018800013E07A685368012161F39F7353600CE0A1
:101890007A685368022161F39F73536005E07A68A8
:1018A000536843F04043536000BF03E13B685B78FB
:1018B000072B00F2018101A252F823F0DD18000885
:1018C000EB180008FD180008171900083119000866
:1018D0007F190008CD1900081B1A00087B68002238
:1018E0001A607B6800225A60C5E07B684FF0443282
:1018F0001A607B684FF044325A60BCE07B684FF05E
:1019000088321A607B684FF088325A607B684FF6E5
:10191000FF721A61AFE07B684FF088321A607B6813
:101920004FF088325A607B684FF6FF725A61A2E02E
:101930003B689B78012B08D17B684FF011321A600D
:101940007B684FF011325A608EE03B689B78022B27
:1019500008D17B684FF022325A607B684FF0223208
:101960001A6081E03B689B78032B7DD17B684FF048
:1019700033325A607B684FF033321A6074E03B6850
:101980009B78012B08D17B684FF055321A607B6839
:101990004FF055325A6069E03B689B78022B08D1C2
:1019A0007B684FF066325A607B684FF066321A608F
:1019B0005CE03B689B78032B58D17B684FF0773213
:1019C0005A607B684FF077321A604FE03B689B7833
:1019D000012B08D17B684FF099321A607B684FF079
:1019E00099325A6044E03B689B78022B08D17B68AF
:1019F0004FF0AA325A607B684FF0AA321A6037E083
:101A00003B689B78032B33D17B684FF0BB325A6025
:101A10007B684FF0BB321A602AE03B689B78012B51
:101A200008D17B684FF0DD321A607B684FF0DD3201
:101A30005A601FE03B689B78022B08D17B684FF00F
:101A4000EE325A607B684FF0EE321A6012E03B686B
:101A50009B78032B0ED17B684FF0FF325A607B6876
:101A60004FF0FF321A6005E000BF25E000BF23E021
:101A700000BF21E000BF1FE000BF1EE000BF1CE070
:101A800000BF1AE000BF18E000BF16E000BF14E07E
:101A900000BF12E000BF10E000BF0EE000BF0CE08E
:101AA00000BF0AE000BF08E000BF06E000BF04E09E
:101AB00000BF02E000BF00E000BF00BF0C37BD4622
:101AC00080BC704780B400AF00BFBD4680BC70478B
:101AD00080B400AF00BFBD4680BC704780B500AF8A
:101AE000024B1B68984700BF80BD00BF5C00002010
:101AF00080B500AF024B1B68984700BF80BD00BF98
:101B00005C00002080B500AF024B1B68984700BF07
:101B100080BD00BF6000002080B500AF024B1B6895
:101B2000984700BF80BD00BF6000002080B500AFB7
:101B3000024B1B68984700BF80BD00BF60000020BB
:101B400080B400AF064A936943F001039361044AED
:101B5000936943F00803936100BFBD4680BC7047A2
:101B60000010024080B400AF034B01221A7000BF86
:101B7000BD4680BC704700BF6400002080B588B0BF
:101B800000AFFFF7DDFF0C4A07F10C0307CA83E83B
:101B9000070001233B76094BFB6101237B7607F1AC
:101BA0000C031846FEF762FC054B1B78002BFBD09C
:101BB000034B00221A70F7E7781C0008651B000829
:101BC000640000200D488546AFF300800C480D49A5
:101BD0000D4A002302E0D458C4500433C4188C4288
:101BE000F9D30A4A0A4C002301E013600432A242EE
:101BF000FBD300F011F8FFF7C1FFFEE70050002013
:101C000000000020000000208C1C000800000020C4
:101C100068000020FEE7000070B500260C4D0D4C5A
:101C2000641BA410A64209D100F01AF800260A4D40
:101C30000A4C641BA410A64205D170BD55F8043BA4
:101C400098470136EEE755F8043B98470136F2E72E
:101C5000841C0008841C0008841C0008881C0008E0
:101C6000F8B500BFF8BC08BC9E467047F8B500BF89
:081C7000F8BC08BC9E46704759
:0C1C780009000000000C01400900000001
:041C840055010008FE
:041C8800310100081E
:0400000508001BC50F
:00000001FF
