:100000000C943B000C9445000C9445000C94450066
:100010000C9445000C9445000C9445000C9445004C
:100020000C9445000C9445000C9445000C9445003C
:100030000C9445000C9445000C9445000C9445002C
:100040000C9445000C9445000C9445000C9445001C
:100050000C94450057008800B900EA001B014C01D0
:100060007D01AE01DF010902150221022D023902D4
:10007000450251025D0211241FBECFE5D8E0DEBF6C
:10008000CDBF0E945D030C9496030C940000CF93A7
:10009000DF93DC01EB01E8814E2F50E04930510540
:1000A00008F0A7C1FA01E65DFF4F0C949003898127
:1000B000813091F018F08230E9F09BC111968C915B
:1000C00011978E7F11968C93119712968C9112979F
:1000D0008E7F12968C938DC111968C9111978E7F85
:1000E00011968C93119712968C91129781601296AB
:1000F0008C937FC111968C911197816011968C938E
:10010000119712968C9112978E7F12968C9371C1D3
:100110008981813091F018F08230E9F06AC111963E
:100120008C9111978D7F11968C93119712968C91CB
:1001300012978D7F12968C935CC111968C911197BA
:100140008D7F11968C93119712968C9112978260E5
:1001500012968C934EC111968C91119782601196D4
:100160008C93119712968C9112978D7F12968C9387
:1001700040C18981813091F018F08230E9F039C1B5
:1001800011968C9111978B7F11968C9311971296E3
:100190008C9112978B7F12968C932BC111968C9118
:1001A00011978B7F11968C93119712968C911297C1
:1001B000846012968C931DC111968C911197846066
:1001C00011968C93119712968C9112978B7F1296A1
:1001D0008C930FC18981813091F018F08230E9F061
:1001E00008C111968C911197877F11968C93119766
:1001F00012968C911297877F12968C93FAC0119663
:100200008C911197877F11968C93119712968C91F0
:100210001297886012968C93ECC011968C9111976E
:10022000886011968C93119712968C911297877F04
:1002300012968C93DEC08981813091F018F0823063
:10024000E9F0D7C011968C9111978F7E11968C93FF
:10025000119712968C9112978F7E12968C93C9C02B
:1002600011968C9111978F7E11968C9311971296FF
:100270008C911297806112968C93BBC011968C91D1
:100280001197806111968C93119712968C91129709
:100290008F7E12968C93ADC08981813091F018F0D9
:1002A0008230E9F0A6C011968C9111978F7D11963E
:1002B0008C93119712968C9112978F7D12968C9336
:1002C00098C011968C9111978F7D11968C931197F0
:1002D00012968C911297806212968C938AC0119616
:1002E0008C911197806211968C93119712968C9134
:1002F00012978F7D12968C937CC08981813091F00A
:1003000018F08230E9F075C011968C9111978F7BAF
:1003100011968C93119712968C9112978F7B12964F
:100320008C9367C011968C9111978F7B11968C934B
:10033000119712968C911297806412968C9359C0E3
:1003400011968C911197806411968C931197129647
:100350008C9112978F7B12968C934BC08981813040
:1003600091F018F08230E9F044C011968C91119709
:100370008F7711968C93119712968C9112978F7795
:1003800012968C9336C011968C9111978F77119697
:100390008C93119712968C911297806812968C9379
:1003A00028C011968C911197806811968C931197A3
:1003B00012968C9112978F7712968C931AC089811E
:1003C000813051F018F0823071F013C011961C92F8
:1003D000119712961C920DC011961C9211978FEFD7
:1003E00012968C9306C08FEF11968C9311971296EC
:1003F0001C92DF91CF9108950F931F93062F10E069
:100400000830110508F064C0F801ED5CFF4F0C9452
:100410009003442329F0FC0122812160228358C0EB
:10042000FC0122812E7F228353C0442329F0FC014A
:100430002281226022834CC0FC0122812D7F2283F5
:1004400047C0442329F0FC0122812460228340C05C
:10045000FC0122812B7F22833BC0442329F0FC0135
:1004600022812860228334C0FC012281277F2283DD
:100470002FC0442329F0FC0122812061228328C05F
:10048000FC0122812F7E228323C0442329F0FC011A
:100490002281206222831CC0FC0122812F7D2283C5
:1004A00017C0442329F0FC0122812064228310C05C
:1004B000FC0122812F7B22830BC0442329F0FC0105
:1004C00022812068228304C0FC0122812F772283AD
:1004D0001F910F910895FC0162830895FF920F937D
:1004E0001F93CF93DF9300D0CDB7DEB78C01FC0113
:1004F0008481882391F16894FF24F1F8FA8284E0E2
:100500008983BE016F5F7F4F86E390E00E944700C2
:1005100041E064E086E390E00E94FC01FA8285E01D
:100520008983BE016F5F7F4F86E390E00E944700A2
:100530001A8286E08983BE016F5F7F4F86E390E079
:100540000E944700FA8287E08983BE016F5F7F4F78
:1005500086E390E00E94470029C01A8284E08983E4
:10056000BE016F5F7F4F86E390E00E9447001A82D2
:1005700085E08983BE016F5F7F4F86E390E00E9434
:10058000470082E08A8386E08983BE016F5F7F4FE8
:1005900086E390E00E9447001A8287E08983BE01CB
:1005A0006F5F7F4F86E390E00E944700F8018081F3
:1005B000982F93708DB18C7F892B8DB993818DB1DC
:1005C00090FB85F98DB991818DB190FB83F98DB93F
:1005D00092818DB190FB82F98DB994818DB190FBA0
:1005E00084F98DB98DB180648DB90F900F90DF9132
:1005F000CF911F910F91FF900895CF93C82F6C9BBF
:1006000006C040E064E086E390E00E94FC01CFB9C0
:10061000779BFECFCFB16C9B06C041E064E086E3E0
:1006200090E00E94FC018C2FCF910895CF93DF932F
:10063000CDB7DEB728970FB6F894DEBF0FBECDBF9B
:10064000AB01BC0119821A821B821C8224C01D824C
:100650001E821F8218860BC08D819E81AF81B88556
:100660000196A11DB11D8D839E83AF83B8878D81B7
:100670009E81AF81B88580349105A105B10560F3F5
:1006800089819A81AB81BC810196A11DB11D8983AD
:100690009A83AB83BC8389819A81AB81BC818417A7
:1006A0009507A607B70798F228960FB6F894DEBF0D
:1006B0000FBECDBFDF91CF910895CF93DF93CDB71C
:1006C000DEB727970FB6F894DEBF0FBECDBF81E02F
:1006D0008F831E828B831D821C82CE0103960E9413
:1006E0006E0288E0898382E08A83BE016F5F7F4F5C
:1006F00089E390E00E94470010E00FC0812F0E9424
:10070000FD02682F89E390E00E946B0264E670E0CE
:1007100080E090E00E9416031F5F1F3F79F7ECCF47
:10072000EE0FFF1F0590F491E02D0994F894FFCF90
:00000001FF
