:100000000C942A000C9447000C9447000C94470071
:100010000C9447000C9447000C9447000C94470044
:100020000C9447000C9447000C9447000C94470034
:100030000C9447000C9447000C9447000C94470024
:100040000C9447000C9447000C9447000C94470014
:100050000C94470011241FBECFE5D8E0DEBFCDBF12
:1000600010E0A0E6B0E0ECE8F1E002C005900D92EF
:10007000A436B107D9F710E0A4E6B0E001C01D92A4
:10008000A436B107E1F70E9449000C94C4000C9417
:100090000000E0916000F0916100808180628083C7
:1000A000E0916000F0916100808180648083E09144
:1000B0006000F0916100808180688083E09162003F
:1000C000F09163001082E0916200F0916300808102
:1000D000806280838FE39DE0A3E081509040A04048
:1000E000E1F700C00000E0916200F09163008081C0
:1000F000806480838FE39DE0A3E081509040A04026
:10010000E1F700C00000E0916200F091630080819F
:10011000806880838FE39DE0A3E081509040A04001
:10012000E1F700C00000E0916200F091630080817F
:100130008F7780838FE39DE0A3E081509040A040C3
:10014000E1F700C00000E0916200F091630080815F
:100150008F7B80838FE39DE0A3E081509040A0409F
:10016000E1F700C00000E0916200F091630080813F
:100170008F7D80838FE39DE0A3E081509040A0407D
:0C018000E1F700C000009FCFF894FFCF13
:04018C00310032000C
:00000001FF
