:020000040800F2
:1000000000280020E501000835020008350200083C
:100010003502000835020008350200080000000023
:100020000000000000000000000000003502000891
:100030003502000800000000350200083502000803
:1000400035020008350200083502000835020008B4
:1000500035020008350200083502000835020008A4
:100060003502000835020008350200083502000894
:100070003502000835020008350200083502000884
:100080003502000835020008350200083502000874
:100090003502000835020008350200083502000864
:1000A0003502000835020008350200083502000854
:1000B0003502000835020008350200083502000844
:1000C0003502000835020008350200083502000834
:1000D0003502000835020008350200083502000824
:1000E0003502000835020008000000003502000853
:1000F0003502000835020008350200083502000804
:1001000035020008350200083502000835020008F3
:1001100035020008350200083502000835020008E3
:1001200035020008350200083502000835020008D3
:1001300010B5054C237833B9044B13B10448AFF321
:1001400000800123237010BD080000200000000083
:100150008002000808B5034B1BB103490348AFF305
:10016000008008BD000000000C0000208002000894
:1001700080B483B000AF184B1B68174A43F00403E8
:100180001360164B1A681368022161F3175313604A
:10019000134B1A68138843F40053138000237B60C9
:1001A00002E07B6801337B607B6841F287329342D7
:1001B000F7DD0B4B1A6813886FF34D331380002360
:1001C0003B6002E03B6801333B603B6841F28732B1
:1001D0009342F7DDDCE700BF18100240000000206A
:1001E000040000200D488546AFF300800C480D49FF
:1001F0000D4A002302E0D458C4500433C4188C4282
:10020000F9D30A4A0A4C002301E013600432A242E7
:10021000FBD300F011F8FFF7ABFFFEE7002800204A
:100220000000002008000020A002000808000020B4
:1002300024000020FEE7000070B500250C4E0D4C98
:10024000A41BA410A54209D100F01AF800250A4EFB
:100250000A4CA41BA410A54205D170BD56F8253048
:1002600098470135EEE756F8253098470135F2E713
:100270009802000898020008980200089C020008F2
:10028000F8B500BFF8BC08BC9E467047F8B500BF83
:08029000F8BC08BC9E46704753
:040298005501000804
:04029C003101000824
:0802A000040801400C080140B4
:04000005080001E509
:00000001FF
